{
  "_format": "hh-sol-artifact-1",
  "contractName": "Wrapper",
  "sourceName": "contracts/Wrapper.sol",
  "abi": [
    {
      "inputs": [
        {
          "internalType": "address",
          "name": "_zkp2p",
          "type": "address"
        },
        {
          "internalType": "address",
          "name": "_usdc",
          "type": "address"
        }
      ],
      "stateMutability": "nonpayable",
      "type": "constructor"
    },
    {
      "inputs": [
        {
          "components": [
            {
              "internalType": "uint256",
              "name": "depositId",
              "type": "uint256"
            },
            {
              "internalType": "uint256",
              "name": "amount",
              "type": "uint256"
            },
            {
              "internalType": "address",
              "name": "verifier",
              "type": "address"
            },
            {
              "internalType": "bytes32",
              "name": "fiatCurrency",
              "type": "bytes32"
            },
            {
              "internalType": "bytes",
              "name": "gatingServiceSignature",
              "type": "bytes"
            }
          ],
          "internalType": "struct Wrapper.OnrampIntent",
          "name": "onrampIntent",
          "type": "tuple"
        },
        {
          "internalType": "bytes",
          "name": "paymentProof",
          "type": "bytes"
        },
        {
          "components": [
            {
              "internalType": "address[]",
              "name": "verifiers",
              "type": "address[]"
            },
            {
              "components": [
                {
                  "internalType": "address",
                  "name": "intentGatingService",
                  "type": "address"
                },
                {
                  "internalType": "string",
                  "name": "payeeDetails",
                  "type": "string"
                },
                {
                  "internalType": "bytes",
                  "name": "data",
                  "type": "bytes"
                }
              ],
              "internalType": "struct IEscrow.DepositVerifierData[]",
              "name": "data",
              "type": "tuple[]"
            },
            {
              "components": [
                {
                  "internalType": "bytes32",
                  "name": "code",
                  "type": "bytes32"
                },
                {
                  "internalType": "uint256",
                  "name": "conversionRate",
                  "type": "uint256"
                }
              ],
              "internalType": "struct IEscrow.Currency[][]",
              "name": "currencies",
              "type": "tuple[][]"
            }
          ],
          "internalType": "struct Wrapper.OfframpIntent",
          "name": "offrampIntent",
          "type": "tuple"
        }
      ],
      "name": "signalIntent",
      "outputs": [],
      "stateMutability": "nonpayable",
      "type": "function"
    },
    {
      "inputs": [],
      "name": "usdc",
      "outputs": [
        {
          "internalType": "address",
          "name": "",
          "type": "address"
        }
      ],
      "stateMutability": "view",
      "type": "function"
    },
    {
      "inputs": [],
      "name": "zkp2p",
      "outputs": [
        {
          "internalType": "address",
          "name": "",
          "type": "address"
        }
      ],
      "stateMutability": "view",
      "type": "function"
    }
  ],
  "bytecode": "0x60c060405234801561001057600080fd5b50604051610a50380380610a5083398101604081905261002f91610062565b6001600160a01b039182166080521660a052610095565b80516001600160a01b038116811461005d57600080fd5b919050565b6000806040838503121561007557600080fd5b61007e83610046565b915061008c60208401610046565b90509250929050565b60805160a05161096f6100e160003960008181604b015281816102d1015261038d015260008181608e0152818160cf0152818161021f0152818161029f0152610364015261096f6000f3fe608060405234801561001057600080fd5b50600436106100415760003560e01c80633e413bee1461004657806384b6a78814610089578063e94d6857146100b0575b600080fd5b61006d7f000000000000000000000000000000000000000000000000000000000000000081565b6040516001600160a01b03909116815260200160405180910390f35b61006d7f000000000000000000000000000000000000000000000000000000000000000081565b6100c36100be366004610449565b6100c5565b005b6001600160a01b037f000000000000000000000000000000000000000000000000000000000000000016632b8fcd88853560208701353061010c60608a0160408b01610529565b60608a013561011e60808c018c61054b565b6040518863ffffffff1660e01b815260040161014097969594939291906105c2565b600060405180830381600087803b15801561015a57600080fd5b505af115801561016e573d6000803e3d6000fd5b505050506000308560400160208101906101889190610529565b6040516bffffffffffffffffffffffff19606093841b811660208301529190921b1660348201528535604882015242606882015260880160408051601f198184030181529190528051602090910120905060006102057f30644e72e131a029b85045b68181585d2833e84879b9709143e1f593f000000183610610565b604051631715a1cb60e11b81529091506001600160a01b037f00000000000000000000000000000000000000000000000000000000000000001690632e2b43969061025890889088908690600401610632565b600060405180830381600087803b15801561027257600080fd5b505af1158015610286573d6000803e3d6000fd5b505060405163095ea7b360e01b81526001600160a01b037f00000000000000000000000000000000000000000000000000000000000000008116600483015260208a013560248301527f000000000000000000000000000000000000000000000000000000000000000016925063095ea7b391506044016020604051808303816000875af115801561031c573d6000803e3d6000fd5b505050506040513d601f19601f820116820180604052508101906103409190610656565b50604080518082019091526020808801358083529082018190526001600160a01b037f0000000000000000000000000000000000000000000000000000000000000000169063b06f7f8f907f000000000000000000000000000000000000000000000000000000000000000090846103b88980610678565b6103c560208c018c610678565b6103d260408e018e610678565b6040518a63ffffffff1660e01b81526004016103f699989796959493929190610899565b600060405180830381600087803b15801561041057600080fd5b505af1158015610424573d6000803e3d6000fd5b5050505050505050505050565b60006060828403121561044357600080fd5b50919050565b6000806000806060858703121561045f57600080fd5b843567ffffffffffffffff8082111561047757600080fd5b9086019060a0828903121561048b57600080fd5b909450602086013590808211156104a157600080fd5b818701915087601f8301126104b557600080fd5b8135818111156104c457600080fd5b8860208285010111156104d657600080fd5b6020830195508094505060408701359150808211156104f457600080fd5b5061050187828801610431565b91505092959194509250565b80356001600160a01b038116811461052457600080fd5b919050565b60006020828403121561053b57600080fd5b6105448261050d565b9392505050565b6000808335601e1984360301811261056257600080fd5b83018035915067ffffffffffffffff82111561057d57600080fd5b60200191503681900382131561059257600080fd5b9250929050565b81835281816020850137506000828201602090810191909152601f909101601f19169091010190565b878152602081018790526001600160a01b038681166040830152851660608201526080810184905260c060a082018190526000906106039083018486610599565b9998505050505050505050565b60008261062d57634e487b7160e01b600052601260045260246000fd5b500690565b604081526000610646604083018587610599565b9050826020830152949350505050565b60006020828403121561066857600080fd5b8151801515811461054457600080fd5b6000808335601e1984360301811261068f57600080fd5b83018035915067ffffffffffffffff8211156106aa57600080fd5b6020019150600581901b360382131561059257600080fd5b6000808335601e198436030181126106d957600080fd5b830160208101925035905067ffffffffffffffff8111156106f957600080fd5b80360382131561059257600080fd5b81835260006020808501808196508560051b81019150846000805b888110156107b5578385038a528235605e19893603018112610743578283fd5b880160606001600160a01b036107588361050d565b168752610767888301836106c2565b828a8a0152610779838a018284610599565b92505050604061078b818401846106c2565b9350888303828a015261079f838583610599565b9d8a019d98505050938701935050600101610723565b509298975050505050505050565b8183526000602080850194508260005b858110156107f957813587528282013583880152604096870196909101906001016107d3565b509495945050505050565b81835260006020808501808196508560051b810191508460005b8781101561088c5782840389528135601e1988360301811261083f57600080fd5b8701858101903567ffffffffffffffff81111561085b57600080fd5b8060061b360382131561086d57600080fd5b6108788682846107c3565b9a87019a955050509084019060010161081e565b5091979650505050505050565b6001600160a01b038a8116825260208083018b90528951604084015289810151606084015260e060808401819052830188905260009189916101008501845b8b8110156108fd57836108ea8661050d565b16825293820193908201906001016108d8565b5085810360a0870152610911818a8c610708565b935050505082810360c0840152610929818587610804565b9c9b50505050505050505050505056fea26469706673582212206ca2bdc4ec306e99adc7177960c5c385b7be792d88e35b08065bdde2322e646464736f6c63430008120033",
  "linkReferences": {},
  "deployedLinkReferences": {}
}